{
  "contractName": "Bettings",
  "abi": [
    {
      "constant": true,
      "inputs": [
        {
          "name": "",
          "type": "address"
        }
      ],
      "name": "playerInfo",
      "outputs": [
        {
          "name": "amountBet",
          "type": "uint256"
        },
        {
          "name": "teamSelected",
          "type": "uint16"
        }
      ],
      "payable": false,
      "stateMutability": "view",
      "type": "function"
    },
    {
      "constant": true,
      "inputs": [],
      "name": "totalBetsTwo",
      "outputs": [
        {
          "name": "",
          "type": "uint256"
        }
      ],
      "payable": false,
      "stateMutability": "view",
      "type": "function"
    },
    {
      "constant": true,
      "inputs": [],
      "name": "totalBetsOne",
      "outputs": [
        {
          "name": "",
          "type": "uint256"
        }
      ],
      "payable": false,
      "stateMutability": "view",
      "type": "function"
    },
    {
      "constant": true,
      "inputs": [],
      "name": "owner",
      "outputs": [
        {
          "name": "",
          "type": "address"
        }
      ],
      "payable": false,
      "stateMutability": "view",
      "type": "function"
    },
    {
      "constant": true,
      "inputs": [],
      "name": "minimumBet",
      "outputs": [
        {
          "name": "",
          "type": "uint256"
        }
      ],
      "payable": false,
      "stateMutability": "view",
      "type": "function"
    },
    {
      "constant": true,
      "inputs": [
        {
          "name": "",
          "type": "uint256"
        }
      ],
      "name": "players",
      "outputs": [
        {
          "name": "",
          "type": "address"
        }
      ],
      "payable": false,
      "stateMutability": "view",
      "type": "function"
    },
    {
      "inputs": [],
      "payable": false,
      "stateMutability": "nonpayable",
      "type": "constructor"
    },
    {
      "payable": true,
      "stateMutability": "payable",
      "type": "fallback"
    },
    {
      "constant": true,
      "inputs": [
        {
          "name": "player",
          "type": "address"
        }
      ],
      "name": "checkPlayerExists",
      "outputs": [
        {
          "name": "",
          "type": "bool"
        }
      ],
      "payable": false,
      "stateMutability": "view",
      "type": "function"
    },
    {
      "constant": false,
      "inputs": [
        {
          "name": "_teamSelected",
          "type": "uint8"
        }
      ],
      "name": "betfunc",
      "outputs": [],
      "payable": true,
      "stateMutability": "payable",
      "type": "function"
    },
    {
      "constant": false,
      "inputs": [
        {
          "name": "teamWinner",
          "type": "uint16"
        }
      ],
      "name": "distributePrizes",
      "outputs": [],
      "payable": false,
      "stateMutability": "nonpayable",
      "type": "function"
    },
    {
      "constant": true,
      "inputs": [],
      "name": "AmountOne",
      "outputs": [
        {
          "name": "",
          "type": "uint256"
        }
      ],
      "payable": false,
      "stateMutability": "view",
      "type": "function"
    },
    {
      "constant": true,
      "inputs": [],
      "name": "AmountTwo",
      "outputs": [
        {
          "name": "",
          "type": "uint256"
        }
      ],
      "payable": false,
      "stateMutability": "view",
      "type": "function"
    },
    {
      "constant": true,
      "inputs": [
        {
          "name": "_address",
          "type": "address"
        },
        {
          "name": "_team",
          "type": "uint16"
        }
      ],
      "name": "Total_bet_by_Address",
      "outputs": [
        {
          "name": "",
          "type": "uint256"
        }
      ],
      "payable": false,
      "stateMutability": "view",
      "type": "function"
    }
  ],
  "bytecode": "0x608060405234801561001057600080fd5b5060008054600160a060020a03191633179055655af3107a40006001556108e68061003c6000396000f3fe6080604052600436106100b95763ffffffff7c01000000000000000000000000000000000000000000000000000000006000350416634081d91681146100bb5780634996d51d146101025780634b114691146101295780635bf6b19f14610178578063657335921461018d5780637904f688146101a25780638afadeb5146101d05780638da5cb5b146101e557806395842da414610216578063c38a8afd14610253578063c6bfb55414610268578063f71d96cb14610288575b005b3480156100c757600080fd5b506100ee600480360360208110156100de57600080fd5b5035600160a060020a03166102b2565b604080519115158252519081900360200190f35b34801561010e57600080fd5b50610117610311565b60408051918252519081900360200190f35b34801561013557600080fd5b5061015c6004803603602081101561014c57600080fd5b5035600160a060020a0316610318565b6040805192835261ffff90911660208301528051918290030190f35b34801561018457600080fd5b50610117610335565b34801561019957600080fd5b5061011761033b565b3480156101ae57600080fd5b506100b9600480360360208110156101c557600080fd5b503561ffff16610341565b3480156101dc57600080fd5b506101176105c2565b3480156101f157600080fd5b506101fa6105c8565b60408051600160a060020a039092168252519081900360200190f35b34801561022257600080fd5b506101176004803603604081101561023957600080fd5b508035600160a060020a0316906020013561ffff166105d7565b34801561025f57600080fd5b50610117610621565b6100b96004803603602081101561027e57600080fd5b503560ff16610627565b34801561029457600080fd5b506101fa600480360360208110156102ab57600080fd5b503561082a565b6000805b6004548110156103065782600160a060020a03166004828154811015156102d957fe5b600091825260209091200154600160a060020a031614156102fe57600191505061030c565b6001016102b6565b50600090505b919050565b6002545b90565b6005602052600090815260409020805460019091015461ffff1682565b60035481565b60035490565b600054600160a060020a031633146103ba57604080517f08c379a000000000000000000000000000000000000000000000000000000000815260206004820181905260248201527f4f6e6c79206f776e65722063616e2075736520746869732066756e6374696f6e604482015290519081900360640190fd5b6103c2610852565b60008080808080805b60045481101561044d5760048054829081106103e357fe5b6000918252602080832090910154600160a060020a0316808352600590915260409091206001015490925061ffff908116908a161415610445578188886103e8811061042b57fe5b600160a060020a0390921660209290920201526001909601955b6001016103cb565b508761ffff166001141561046a5760035494506002549350610475565b600254945060035493505b60005b8681101561054757600088826103e8811061048f57fe5b6020020151600160a060020a0316146104b75787816103e881106104af57fe5b602002015193505b600160a060020a038416600090815260056020526040902054925087816103e881106104df57fe5b6020020151600160a060020a03166108fc61271087896127100281151561050257fe5b0461271001860281151561051257fe5b049081150290604051600060405180830381858888f1935050505015801561053e573d6000803e3d6000fd5b50600101610478565b5060005b60045481101561059f57600480548290811061056357fe5b6000918252602080832090910154600160a060020a03168083526005909152604082209182556001918201805461ffff1916905592500161054b565b5060006105ad600482610873565b50506000600281905560035550505050505050565b60025481565b600054600160a060020a031681565b3360009081526005602052604081206001015461ffff838116911614156106175750600160a060020a03821660009081526005602052604090205461061b565b5060005b92915050565b60015481565b6001543410156106be57604080517f08c379a000000000000000000000000000000000000000000000000000000000815260206004820152603560248201527f42657474696e67206c657373207468616e20313030303030303030303030303060448201527f3020576569206973206e6f742061636365707465640000000000000000000000606482015290519081900360840190fd5b6106c7336102b2565b15610793573360009081526005602052604090206001015461ffff1660ff82161461077957604080517f08c379a000000000000000000000000000000000000000000000000000000000815260206004820152602360248201527f596f752063616e20626574206f6e206f6e6c79206f6e65205465616d2f506c6160448201527f7965720000000000000000000000000000000000000000000000000000000000606482015290519081900360840190fd5b336000908152600560205260409020805434019055610805565b3360008181526005602052604081203481556001908101805461ffff191660ff86161790556004805491820181559091527f8a35acfbc15ff81a39ae7d344fd709f28e8600b4aa8c65c6b64bfe7fe36bd19b01805473ffffffffffffffffffffffffffffffffffffffff191690911790555b8060ff166001141561081e576002805434019055610827565b60038054340190555b50565b600480548290811061083857fe5b600091825260209091200154600160a060020a0316905081565b617d00604051908101604052806103e8906020820280388339509192915050565b8154818355818111156108975760008381526020902061089791810190830161089c565b505050565b61031591905b808211156108b657600081556001016108a2565b509056fea165627a7a72305820c0f474e3b7427264348679677fbe6f94178c3a297c2d3553a5cd786853c669940029",
  "source": "pragma solidity ^0.5.0;\ncontract Bettings {\n  address payable public owner;\n  uint256 public minimumBet;\n  uint256 public totalBetsOne;\n  uint256 public totalBetsTwo;\n  address payable[] public players;\n  struct Player {\n    uint256 amountBet;\n    uint16 teamSelected;\n  }\n  mapping(address => Player) public playerInfo;\n  function() external payable {}\n  constructor() public {\n    owner = msg.sender;\n    minimumBet = 100000000000000;\n  }\n  // function kill() public {\n  //     if(msg.sender == owner) selfdestruct(owner);\n  // }\n  function checkPlayerExists(address payable player) public view returns(bool){\n    for(uint256 i = 0; i < players.length; i++){\n      if(players[i] == player) return true;\n    }\n    return false;\n  }\n//main functions\n  function betfunc(uint8 _teamSelected) public payable {\n    //The first require is used to check if the player already exist\n    require(msg.value >= minimumBet,\"Betting less than 100000000000000 Wei is not accepted\");\n    \n    // require(!checkPlayerExists(msg.sender),\"the player already exist\");\n    if(checkPlayerExists(msg.sender)){\n    \trequire(playerInfo[msg.sender].teamSelected == _teamSelected,\"You can bet on only one Team/Player\");\n    \tplayerInfo[msg.sender].amountBet += msg.value;\n\n    }else{\n\t    playerInfo[msg.sender].amountBet = msg.value;\n    \tplayerInfo[msg.sender].teamSelected = _teamSelected;\n    \tplayers.push(msg.sender);\n    }\n    if ( _teamSelected == 1){\n      totalBetsOne += msg.value;\n    }\n    else{\n      totalBetsTwo += msg.value;\n    }\n  }\n\n  function distributePrizes(uint16 teamWinner) public {\n    require(msg.sender == owner,\"Only owner can use this function\");//can add time also in require option then anyone can use this but only once #security\n    address payable[1000] memory winners;//can be less\n    //We have to create a temporary in memory array with fixed size\n    //Let's choose 1000\n    uint256 count = 0; // This is the count for the array of winners\n    uint256 LoserBet = 0; //This will take the value of all losers bet\n    uint256 WinnerBet = 0; //This will take the value of all winners bet\n    address add;\n    uint256 bet;\n    address payable playerAddress;\n    for(uint256 i = 0; i < players.length; i++){\n      playerAddress = players[i];\n      if(playerInfo[playerAddress].teamSelected == teamWinner){\n        winners[count] = playerAddress;\n        count++;\n      }\n    }\n    if(teamWinner == 1){\n      LoserBet = totalBetsTwo;\n      WinnerBet = totalBetsOne;\n    }\n    else{\n      LoserBet = totalBetsOne;\n      WinnerBet = totalBetsTwo;\n    }\n    for(uint256 j = 0; j < count; j++){\n      // Check that the address in this fixed array is not empty\n      if(winners[j] != address(0))\n        add = winners[j];\n        bet = playerInfo[add].amountBet;\n        //Transfer the money to the user\n        winners[j].transfer((bet*(10000+(LoserBet*10000/WinnerBet)))/10000);\n      }\n    for(uint256 i = 0; i < players.length; i++){\n    \tplayerAddress = players[i];\n\t\tdelete playerInfo[playerAddress]; // Delete all the players\n    }\n\t// delete playerInfo[playerAddress]; // Delete all the players\n\tplayers.length = 0; // Delete all the players array\n\tLoserBet = 0; //reinitialize the bets\n\tWinnerBet = 0;\n\ttotalBetsOne = 0;\n\ttotalBetsTwo = 0;\n  }\n  function AmountOne() public view returns(uint256){\n    return totalBetsOne;//show this in HTML\n  }\n  function AmountTwo() public view returns(uint256){\n    return totalBetsTwo;////show this in HTML\n  }\n  function Total_bet_by_Address(address _address,uint16 _team) public view returns(uint256){\n    if(playerInfo[msg.sender].teamSelected == _team){\n    \treturn playerInfo[_address].amountBet;\t\n    }\n  \telse {\n  \t\treturn 0;\n  \t}\n  }\n}\n\n\ncontract Horse_Bet {\n  address payable public owner;\n  uint256 public minimumBet;\n  uint public HorseCount = 0;\n\n  address payable[] public players;\n  struct Player {\n    uint256 amountBet;\n    uint16 horseSelected;\n  }\n  mapping(address => Player) public playerInfo;\n  mapping(uint=>uint) public bet_ratio; //per 100\n\n  function() external payable {}\n  constructor() public {\n    owner = msg.sender;\n    minimumBet = 100000000000000;\n  }\n  // function kill() public {\n  //     if(msg.sender == owner) selfdestruct(owner);\n  // }\n  function checkPlayerExists(address payable player) public view returns(bool){\n    for(uint256 i = 0; i < players.length; i++){\n      if(players[i] == player) return true;\n    }\n    return false;\n  }\n//main functions\n function betfunc(uint8 _teamSelected) public payable {\n    require(msg.value >= minimumBet,\"Betting less than 100000000000000 Wei is not accepted\");\n    // require(!checkPlayerExists(msg.sender),\"the player already exist\");\n    if(checkPlayerExists(msg.sender)){\n      require(playerInfo[msg.sender].horseSelected == _teamSelected,\"You can bet on only one Team/Player\");\n      playerInfo[msg.sender].amountBet += msg.value;\n    }else{\n      playerInfo[msg.sender].amountBet = msg.value;\n      playerInfo[msg.sender].horseSelected = _teamSelected;\n      players.push(msg.sender);\n    }\n  }\n\n  function distributePrizes(uint16 teamWinner) public {\n    require(msg.sender == owner,\"Only owner can use this function\");//can add time also in require option then anyone can use this but only once #security\n    uint256 bet;\n    uint256 ratio = bet_ratio[teamWinner] ;\n    address payable playerAddress;\n    for(uint256 i = 0; i < players.length; i++){\n      playerAddress = players[i];\n      if(playerInfo[playerAddress].horseSelected == teamWinner){\n        bet = playerInfo[playerAddress].amountBet;\n        playerAddress.transfer((bet*ratio)/1000);\n      }\n      delete playerInfo[playerAddress]; // Delete all the players\n    }\n    players.length = 0; // Delete all the players array\n    HorseCount = 0;\n  }\n  function Total_bet_by_Address(address _address,uint16 _team) public view returns(uint256){\n    if(playerInfo[msg.sender].horseSelected == _team){\n      return playerInfo[_address].amountBet;  \n    }\n    else {\n      return 0;\n    }\n  }\n  function set_bet_ratio( uint[] memory _bet_ratios) public {\n    require(msg.sender == owner,\"Only owner can use this function\");//can add time also in require option then anyone can use this but only once #security\n    for(uint256 i = 1; i <= _bet_ratios.length; i++){\n      // playerAddress = players[i];\n      bet_ratio[i] = _bet_ratios[i-1];\n    }\n    HorseCount = _bet_ratios.length;\n  }\n}",
  "sourcePath": "/home/ankit/Desktop/yet_another_attempt/contracts/Betting.sol",
  "compiler": {
    "name": "solc",
    "version": "0.5.0+commit.1d4f565a.Emscripten.clang"
  },
  "schemaVersion": "3.0.1",
  "updatedAt": "2019-10-14T18:24:30.179Z",
  "devdoc": {
    "methods": {}
  },
  "userdoc": {
    "methods": {}
  }
}