{
  "contractName": "Betting",
  "abi": [
    {
      "constant": true,
      "inputs": [
        {
          "name": "",
          "type": "address"
        }
      ],
      "name": "playerInfo",
      "outputs": [
        {
          "name": "amountBet",
          "type": "uint256"
        },
        {
          "name": "teamSelected",
          "type": "uint16"
        }
      ],
      "payable": false,
      "stateMutability": "view",
      "type": "function",
      "signature": "0x4b114691"
    },
    {
      "constant": true,
      "inputs": [],
      "name": "totalBetsTwo",
      "outputs": [
        {
          "name": "",
          "type": "uint256"
        }
      ],
      "payable": false,
      "stateMutability": "view",
      "type": "function",
      "signature": "0x5bf6b19f"
    },
    {
      "constant": true,
      "inputs": [],
      "name": "totalBetsOne",
      "outputs": [
        {
          "name": "",
          "type": "uint256"
        }
      ],
      "payable": false,
      "stateMutability": "view",
      "type": "function",
      "signature": "0x8afadeb5"
    },
    {
      "constant": true,
      "inputs": [],
      "name": "owner",
      "outputs": [
        {
          "name": "",
          "type": "address"
        }
      ],
      "payable": false,
      "stateMutability": "view",
      "type": "function",
      "signature": "0x8da5cb5b"
    },
    {
      "constant": true,
      "inputs": [],
      "name": "minimumBet",
      "outputs": [
        {
          "name": "",
          "type": "uint256"
        }
      ],
      "payable": false,
      "stateMutability": "view",
      "type": "function",
      "signature": "0xc38a8afd"
    },
    {
      "constant": true,
      "inputs": [
        {
          "name": "",
          "type": "uint256"
        }
      ],
      "name": "players",
      "outputs": [
        {
          "name": "",
          "type": "address"
        }
      ],
      "payable": false,
      "stateMutability": "view",
      "type": "function",
      "signature": "0xf71d96cb"
    },
    {
      "inputs": [],
      "payable": false,
      "stateMutability": "nonpayable",
      "type": "constructor",
      "signature": "constructor"
    },
    {
      "payable": true,
      "stateMutability": "payable",
      "type": "fallback"
    },
    {
      "constant": false,
      "inputs": [],
      "name": "kill",
      "outputs": [],
      "payable": false,
      "stateMutability": "nonpayable",
      "type": "function",
      "signature": "0x41c0e1b5"
    },
    {
      "constant": true,
      "inputs": [
        {
          "name": "player",
          "type": "address"
        }
      ],
      "name": "checkPlayerExists",
      "outputs": [
        {
          "name": "",
          "type": "bool"
        }
      ],
      "payable": false,
      "stateMutability": "view",
      "type": "function",
      "signature": "0x4081d916"
    },
    {
      "constant": false,
      "inputs": [
        {
          "name": "_teamSelected",
          "type": "uint8"
        }
      ],
      "name": "betfunc",
      "outputs": [],
      "payable": true,
      "stateMutability": "payable",
      "type": "function",
      "signature": "0xc6bfb554"
    },
    {
      "constant": false,
      "inputs": [
        {
          "name": "teamWinner",
          "type": "uint16"
        }
      ],
      "name": "distributePrizes",
      "outputs": [],
      "payable": false,
      "stateMutability": "nonpayable",
      "type": "function",
      "signature": "0x7904f688"
    },
    {
      "constant": true,
      "inputs": [],
      "name": "AmountOne",
      "outputs": [
        {
          "name": "",
          "type": "uint256"
        }
      ],
      "payable": false,
      "stateMutability": "view",
      "type": "function",
      "signature": "0x4996d51d"
    },
    {
      "constant": true,
      "inputs": [],
      "name": "AmountTwo",
      "outputs": [
        {
          "name": "",
          "type": "uint256"
        }
      ],
      "payable": false,
      "stateMutability": "view",
      "type": "function",
      "signature": "0x65733592"
    },
    {
      "constant": true,
      "inputs": [
        {
          "name": "_address",
          "type": "address"
        },
        {
          "name": "_team",
          "type": "uint16"
        }
      ],
      "name": "Total_bet_by_Address",
      "outputs": [
        {
          "name": "",
          "type": "uint256"
        }
      ],
      "payable": false,
      "stateMutability": "view",
      "type": "function",
      "signature": "0x95842da4"
    },
    {
      "constant": false,
      "inputs": [],
      "name": "stop_betting",
      "outputs": [],
      "payable": false,
      "stateMutability": "nonpayable",
      "type": "function",
      "signature": "0x75f7cd62"
    }
  ],
  "bytecode": "0x60806040526005805460ff1916600117905534801561001d57600080fd5b5060008054600160a060020a03191633179055655af3107a40006001556109ce806100496000396000f3fe6080604052600436106100cf5763ffffffff7c01000000000000000000000000000000000000000000000000000000006000350416634081d91681146100d157806341c0e1b5146101185780634996d51d1461012d5780634b114691146101545780635bf6b19f146101a357806365733592146101b857806375f7cd62146101cd5780637904f688146101e25780638afadeb5146102105780638da5cb5b1461022557806395842da414610256578063c38a8afd14610293578063c6bfb554146102a8578063f71d96cb146102c8575b005b3480156100dd57600080fd5b50610104600480360360208110156100f457600080fd5b5035600160a060020a03166102f2565b604080519115158252519081900360200190f35b34801561012457600080fd5b506100cf610351565b34801561013957600080fd5b50610142610374565b60408051918252519081900360200190f35b34801561016057600080fd5b506101876004803603602081101561017757600080fd5b5035600160a060020a031661037b565b6040805192835261ffff90911660208301528051918290030190f35b3480156101af57600080fd5b50610142610398565b3480156101c457600080fd5b5061014261039e565b3480156101d957600080fd5b506100cf6103a4565b3480156101ee57600080fd5b506100cf6004803603602081101561020557600080fd5b503561ffff16610412565b34801561021c57600080fd5b5061014261067c565b34801561023157600080fd5b5061023a610682565b60408051600160a060020a039092168252519081900360200190f35b34801561026257600080fd5b506101426004803603604081101561027957600080fd5b508035600160a060020a0316906020013561ffff16610691565b34801561029f57600080fd5b506101426106db565b6100cf600480360360208110156102be57600080fd5b503560ff166106e1565b3480156102d457600080fd5b5061023a600480360360208110156102eb57600080fd5b5035610912565b6000805b6004548110156103465782600160a060020a031660048281548110151561031957fe5b600091825260209091200154600160a060020a0316141561033e57600191505061034c565b6001016102f6565b50600090505b919050565b600054600160a060020a031633141561037257600054600160a060020a0316ff5b565b6002545b90565b6006602052600090815260409020805460019091015461ffff1682565b60035481565b60035490565b600054600160a060020a03163314610406576040805160e560020a62461bcd02815260206004820181905260248201527f4f6e6c79206f776e65722063616e2075736520746869732066756e6374696f6e604482015290519081900360640190fd5b6005805460ff19169055565b600054600160a060020a03163314610474576040805160e560020a62461bcd02815260206004820181905260248201527f4f6e6c79206f776e65722063616e2075736520746869732066756e6374696f6e604482015290519081900360640190fd5b61047c61093a565b60008080808080805b60045481101561050757600480548290811061049d57fe5b6000918252602080832090910154600160a060020a0316808352600690915260409091206001015490925061ffff908116908a1614156104ff578188886103e881106104e557fe5b600160a060020a0390921660209290920201526001909601955b600101610485565b508761ffff1660011415610524576003549450600254935061052f565b600254945060035493505b60005b8681101561060157600088826103e8811061054957fe5b6020020151600160a060020a0316146105715787816103e8811061056957fe5b602002015193505b600160a060020a038416600090815260066020526040902054925087816103e8811061059957fe5b6020020151600160a060020a03166108fc6127108789612710028115156105bc57fe5b046127100186028115156105cc57fe5b049081150290604051600060405180830381858888f193505050501580156105f8573d6000803e3d6000fd5b50600101610532565b5060005b60045481101561065957600480548290811061061d57fe5b6000918252602080832090910154600160a060020a03168083526006909152604082209182556001918201805461ffff19169055925001610605565b50600061066760048261095b565b50506000600281905560035550505050505050565b60025481565b600054600160a060020a031681565b3360009081526006602052604081206001015461ffff838116911614156106d15750600160a060020a0382166000908152600660205260409020546106d5565b5060005b92915050565b60015481565b60055460ff16151561073d576040805160e560020a62461bcd02815260206004820152601660248201527f42657474696e672074696d652068617320656e64656400000000000000000000604482015290519081900360640190fd5b6001543410156107bd576040805160e560020a62461bcd02815260206004820152603560248201527f42657474696e67206c657373207468616e20313030303030303030303030303060448201527f3020576569206973206e6f742061636365707465640000000000000000000000606482015290519081900360840190fd5b6107c6336102f2565b1561087b573360009081526006602052604090206001015461ffff1660ff821614610861576040805160e560020a62461bcd02815260206004820152602360248201527f596f752063616e20626574206f6e206f6e6c79206f6e65205465616d2f506c6160448201527f7965720000000000000000000000000000000000000000000000000000000000606482015290519081900360840190fd5b3360009081526006602052604090208054340190556108ed565b3360008181526006602052604081203481556001908101805461ffff191660ff86161790556004805491820181559091527f8a35acfbc15ff81a39ae7d344fd709f28e8600b4aa8c65c6b64bfe7fe36bd19b01805473ffffffffffffffffffffffffffffffffffffffff191690911790555b8060ff166001141561090657600280543401905561090f565b60038054340190555b50565b600480548290811061092057fe5b600091825260209091200154600160a060020a0316905081565b617d00604051908101604052806103e8906020820280388339509192915050565b81548183558181111561097f5760008381526020902061097f918101908301610984565b505050565b61037891905b8082111561099e576000815560010161098a565b509056fea165627a7a723058202d1882982cb680d6c70f0d9784dac000ee630a6491301198f726835d0a63d0540029",
  "source": "pragma solidity ^0.5.0;\ncontract Betting {\n  address payable public owner;\n  uint256 public minimumBet;\n  uint256 public totalBetsOne;\n  uint256 public totalBetsTwo;\n  address payable[] public players;\n  bool valid_bet = true;\n\n  struct Player {\n    uint256 amountBet;\n    uint16 teamSelected;\n  }\n  mapping(address => Player) public playerInfo;\n  function() external payable {}\n  constructor() public {\n    owner = msg.sender;\n    minimumBet = 100000000000000;\n  }\n  function kill() public {\n      if(msg.sender == owner) selfdestruct(owner);\n  }\n  function checkPlayerExists(address payable player) public view returns(bool){\n    for(uint256 i = 0; i < players.length; i++){\n      if(players[i] == player) return true;\n    }\n    return false;\n  }\n//main functions\n  function betfunc(uint8 _teamSelected) public payable {\n    require(valid_bet,\"Betting time has ended\");\n    require(msg.value >= minimumBet,\"Betting less than 100000000000000 Wei is not accepted\");\n    \n    if(checkPlayerExists(msg.sender)){\n    \trequire(playerInfo[msg.sender].teamSelected == _teamSelected,\"You can bet on only one Team/Player\");\n    \tplayerInfo[msg.sender].amountBet += msg.value;\n\n    }else{\n\t    playerInfo[msg.sender].amountBet = msg.value;\n    \tplayerInfo[msg.sender].teamSelected = _teamSelected;\n    \tplayers.push(msg.sender);\n    }\n    if ( _teamSelected == 1){\n      totalBetsOne += msg.value;\n    }\n    else{\n      totalBetsTwo += msg.value;\n    }\n  }\n\n  function distributePrizes(uint16 teamWinner) public {\n    require(msg.sender == owner,\"Only owner can use this function\");//can add time also in require option then anyone can use this but only once #security\n    address payable[1000] memory winners;//can be less\n    //We have to create a temporary in memory array with fixed size\n    //Let's choose 1000\n    uint256 count = 0; // This is the count for the array of winners\n    uint256 LoserBet = 0; //This will take the value of all losers bet\n    uint256 WinnerBet = 0; //This will take the value of all winners bet\n    address add;\n    uint256 bet;\n    address payable playerAddress;\n    for(uint256 i = 0; i < players.length; i++){\n      playerAddress = players[i];\n      if(playerInfo[playerAddress].teamSelected == teamWinner){\n        winners[count] = playerAddress;\n        count++;\n      }\n    }\n    if(teamWinner == 1){\n      LoserBet = totalBetsTwo;\n      WinnerBet = totalBetsOne;\n    }\n    else{\n      LoserBet = totalBetsOne;\n      WinnerBet = totalBetsTwo;\n    }\n    for(uint256 j = 0; j < count; j++){\n      // Check that the address in this fixed array is not empty\n      if(winners[j] != address(0))\n        add = winners[j];\n        bet = playerInfo[add].amountBet;\n        //Transfer the money to the user\n        winners[j].transfer((bet*(10000+(LoserBet*10000/WinnerBet)))/10000);\n      }\n    for(uint256 i = 0; i < players.length; i++){\n    \tplayerAddress = players[i];\n\t\tdelete playerInfo[playerAddress]; // Delete all the players\n    }\n\t// delete playerInfo[playerAddress]; // Delete all the players\n\tplayers.length = 0; // Delete all the players array\n\tLoserBet = 0; //reinitialize the bets\n\tWinnerBet = 0;\n\ttotalBetsOne = 0;\n\ttotalBetsTwo = 0;\n  }\n  function AmountOne() public view returns(uint256){\n    return totalBetsOne;//show this in HTML\n  }\n  function AmountTwo() public view returns(uint256){\n    return totalBetsTwo;////show this in HTML\n  }\n  function Total_bet_by_Address(address _address,uint16 _team) public view returns(uint256){\n    if(playerInfo[msg.sender].teamSelected == _team){\n    \treturn playerInfo[_address].amountBet;\t\n    }\n  \telse {\n  \t\treturn 0;\n  \t}\n  }\n  function stop_betting() public {\n    require(msg.sender == owner,\"Only owner can use this function\");//can add time also in require option then anyone can use this but only once #security\n    valid_bet = false;\n  }\n}\n\n\n",
  "sourcePath": "/home/ankit/Desktop/yet_another_attempt/contracts/Betting.sol",
  "compiler": {
    "name": "solc",
    "version": "0.5.0+commit.1d4f565a.Emscripten.clang"
  },
  "schemaVersion": "3.0.1",
  "updatedAt": "2019-10-16T06:45:18.406Z",
  "devdoc": {
    "methods": {}
  },
  "userdoc": {
    "methods": {}
  }
}