{
  "contractName": "Cricket",
  "abi": [
    {
      "constant": true,
      "inputs": [
        {
          "name": "",
          "type": "uint256"
        }
      ],
      "name": "SelectedPlayerInfos",
      "outputs": [
        {
          "name": "credit",
          "type": "uint256"
        },
        {
          "name": "wicketkeeper_batsman_allrounder_bowler",
          "type": "uint256"
        },
        {
          "name": "team_AB",
          "type": "uint256"
        },
        {
          "name": "run",
          "type": "uint16"
        },
        {
          "name": "four",
          "type": "uint16"
        },
        {
          "name": "six",
          "type": "uint16"
        },
        {
          "name": "wicket",
          "type": "uint16"
        },
        {
          "name": "maiden",
          "type": "uint16"
        }
      ],
      "payable": false,
      "stateMutability": "view",
      "type": "function",
      "signature": "0x3babb6e2"
    },
    {
      "constant": true,
      "inputs": [],
      "name": "Bet_value",
      "outputs": [
        {
          "name": "",
          "type": "uint256"
        }
      ],
      "payable": false,
      "stateMutability": "view",
      "type": "function",
      "signature": "0x476c6af7"
    },
    {
      "constant": true,
      "inputs": [
        {
          "name": "",
          "type": "address"
        }
      ],
      "name": "playerInfo",
      "outputs": [
        {
          "name": "captain",
          "type": "uint256"
        },
        {
          "name": "vice_captain",
          "type": "uint256"
        }
      ],
      "payable": false,
      "stateMutability": "view",
      "type": "function",
      "signature": "0x4b114691"
    },
    {
      "constant": true,
      "inputs": [],
      "name": "owner",
      "outputs": [
        {
          "name": "",
          "type": "address"
        }
      ],
      "payable": false,
      "stateMutability": "view",
      "type": "function",
      "signature": "0x8da5cb5b"
    },
    {
      "constant": true,
      "inputs": [
        {
          "name": "",
          "type": "uint256"
        }
      ],
      "name": "players",
      "outputs": [
        {
          "name": "",
          "type": "address"
        }
      ],
      "payable": false,
      "stateMutability": "view",
      "type": "function",
      "signature": "0xf71d96cb"
    },
    {
      "inputs": [],
      "payable": false,
      "stateMutability": "nonpayable",
      "type": "constructor",
      "signature": "constructor"
    },
    {
      "payable": true,
      "stateMutability": "payable",
      "type": "fallback"
    },
    {
      "constant": false,
      "inputs": [],
      "name": "kill",
      "outputs": [],
      "payable": false,
      "stateMutability": "nonpayable",
      "type": "function",
      "signature": "0x41c0e1b5"
    },
    {
      "constant": false,
      "inputs": [
        {
          "name": "_Bet_value",
          "type": "uint256"
        },
        {
          "name": "_credit",
          "type": "uint8[]"
        },
        {
          "name": "_w_b_a_b",
          "type": "uint8[]"
        },
        {
          "name": "_ab",
          "type": "uint8[]"
        }
      ],
      "name": "init_bet",
      "outputs": [],
      "payable": false,
      "stateMutability": "nonpayable",
      "type": "function",
      "signature": "0x42afc94e"
    },
    {
      "constant": false,
      "inputs": [
        {
          "name": "_run",
          "type": "uint16[]"
        },
        {
          "name": "_four",
          "type": "uint16[]"
        },
        {
          "name": "_six",
          "type": "uint16[]"
        },
        {
          "name": "_wicket",
          "type": "uint16[]"
        },
        {
          "name": "_maiden",
          "type": "uint16[]"
        }
      ],
      "name": "dist_bet",
      "outputs": [],
      "payable": false,
      "stateMutability": "nonpayable",
      "type": "function",
      "signature": "0x58f4e0af"
    },
    {
      "constant": true,
      "inputs": [
        {
          "name": "player",
          "type": "address"
        }
      ],
      "name": "checkPlayerExists",
      "outputs": [
        {
          "name": "",
          "type": "bool"
        }
      ],
      "payable": false,
      "stateMutability": "view",
      "type": "function",
      "signature": "0x4081d916"
    },
    {
      "constant": false,
      "inputs": [
        {
          "name": "player_id",
          "type": "uint256[]"
        }
      ],
      "name": "betfunc",
      "outputs": [],
      "payable": true,
      "stateMutability": "payable",
      "type": "function",
      "signature": "0x9c9a3a41"
    },
    {
      "constant": false,
      "inputs": [],
      "name": "stop_betting",
      "outputs": [],
      "payable": false,
      "stateMutability": "nonpayable",
      "type": "function",
      "signature": "0x75f7cd62"
    },
    {
      "constant": true,
      "inputs": [],
      "name": "get_bet_value",
      "outputs": [
        {
          "name": "",
          "type": "uint256"
        }
      ],
      "payable": false,
      "stateMutability": "view",
      "type": "function",
      "signature": "0x0f9d0cb9"
    },
    {
      "constant": true,
      "inputs": [
        {
          "name": "_a",
          "type": "uint256"
        }
      ],
      "name": "w_b_a_b",
      "outputs": [
        {
          "name": "",
          "type": "uint256"
        }
      ],
      "payable": false,
      "stateMutability": "view",
      "type": "function",
      "signature": "0x358df916"
    },
    {
      "constant": true,
      "inputs": [
        {
          "name": "_a",
          "type": "uint256"
        }
      ],
      "name": "get_credit",
      "outputs": [
        {
          "name": "",
          "type": "uint256"
        }
      ],
      "payable": false,
      "stateMutability": "view",
      "type": "function",
      "signature": "0x7fcc7432"
    },
    {
      "constant": true,
      "inputs": [
        {
          "name": "_a",
          "type": "uint256"
        }
      ],
      "name": "get_team",
      "outputs": [
        {
          "name": "",
          "type": "uint256"
        }
      ],
      "payable": false,
      "stateMutability": "view",
      "type": "function",
      "signature": "0x15c986d6"
    }
  ],
  "bytecode": "0x608060405260006002556004805460ff1916905534801561001f57600080fd5b5060008054600160a060020a03191633179055611488806100416000396000f3fe6080604052600436106100da5763ffffffff7c01000000000000000000000000000000000000000000000000000000006000350416630f9d0cb981146100dc57806315c986d614610103578063358df9161461012d5780633babb6e2146101575780634081d916146101ca57806341c0e1b51461021157806342afc94e14610226578063476c6af7146103e55780634b114691146103fa57806358f4e0af1461044657806375f7cd62146107065780637fcc74321461071b5780638da5cb5b146107455780639c9a3a4114610776578063f71d96cb14610819575b005b3480156100e857600080fd5b506100f1610843565b60408051918252519081900360200190f35b34801561010f57600080fd5b506100f16004803603602081101561012657600080fd5b503561084a565b34801561013957600080fd5b506100f16004803603602081101561015057600080fd5b5035610862565b34801561016357600080fd5b506101816004803603602081101561017a57600080fd5b5035610877565b6040805198895260208901979097528787019590955261ffff93841660608801529183166080870152821660a0860152811660c08501521660e083015251908190036101000190f35b3480156101d657600080fd5b506101fd600480360360208110156101ed57600080fd5b5035600160a060020a03166108d4565b604080519115158252519081900360200190f35b34801561021d57600080fd5b506100da610931565b34801561023257600080fd5b506100da6004803603608081101561024957600080fd5b8135919081019060408101602082013564010000000081111561026b57600080fd5b82018360208201111561027d57600080fd5b8035906020019184602083028401116401000000008311171561029f57600080fd5b91908080602002602001604051908101604052809392919081815260200183836020028082843760009201919091525092959493602081019350359150506401000000008111156102ef57600080fd5b82018360208201111561030157600080fd5b8035906020019184602083028401116401000000008311171561032357600080fd5b919080806020026020016040519081016040528093929190818152602001838360200280828437600092019190915250929594936020810193503591505064010000000081111561037357600080fd5b82018360208201111561038557600080fd5b803590602001918460208302840111640100000000831117156103a757600080fd5b919080806020026020016040519081016040528093929190818152602001838360200280828437600092019190915250929550610954945050505050565b3480156103f157600080fd5b506100f1610b35565b34801561040657600080fd5b5061042d6004803603602081101561041d57600080fd5b5035600160a060020a0316610b3b565b6040805192835260208301919091528051918290030190f35b34801561045257600080fd5b506100da600480360360a081101561046957600080fd5b81019060208101813564010000000081111561048457600080fd5b82018360208201111561049657600080fd5b803590602001918460208302840111640100000000831117156104b857600080fd5b919080806020026020016040519081016040528093929190818152602001838360200280828437600092019190915250929594936020810193503591505064010000000081111561050857600080fd5b82018360208201111561051a57600080fd5b8035906020019184602083028401116401000000008311171561053c57600080fd5b919080806020026020016040519081016040528093929190818152602001838360200280828437600092019190915250929594936020810193503591505064010000000081111561058c57600080fd5b82018360208201111561059e57600080fd5b803590602001918460208302840111640100000000831117156105c057600080fd5b919080806020026020016040519081016040528093929190818152602001838360200280828437600092019190915250929594936020810193503591505064010000000081111561061057600080fd5b82018360208201111561062257600080fd5b8035906020019184602083028401116401000000008311171561064457600080fd5b919080806020026020016040519081016040528093929190818152602001838360200280828437600092019190915250929594936020810193503591505064010000000081111561069457600080fd5b8201836020820111156106a657600080fd5b803590602001918460208302840111640100000000831117156106c857600080fd5b919080806020026020016040519081016040528093929190818152602001838360200280828437600092019190915250929550610b59945050505050565b34801561071257600080fd5b506100da610fd4565b34801561072757600080fd5b506100f16004803603602081101561073e57600080fd5b5035611042565b34801561075157600080fd5b5061075a611054565b60408051600160a060020a039092168252519081900360200190f35b6100da6004803603602081101561078c57600080fd5b8101906020810181356401000000008111156107a757600080fd5b8201836020820111156107b957600080fd5b803590602001918460208302840111640100000000831117156107db57600080fd5b919080806020026020016040519081016040528093929190818152602001838360200280828437600092019190915250929550611063945050505050565b34801561082557600080fd5b5061075a6004803603602081101561083c57600080fd5b50356113ed565b6001545b90565b6000818152600660205260409020600201545b919050565b60009081526006602052604090206001015490565b60066020526000908152604090208054600182015460028301546003909301549192909161ffff80821691620100008104821691640100000000820481169166010000000000008104821691680100000000000000009091041688565b6000805b6003548110156109285782600160a060020a03166003828154811015156108fb57fe5b600091825260209091200154600160a060020a0316141561092057600191505061085d565b6001016108d8565b50600092915050565b600054600160a060020a031633141561095257600054600160a060020a0316ff5b565b600054600160a060020a031633146109b6576040805160e560020a62461bcd02815260206004820181905260248201527f4f6e6c79206f776e65722063616e2075736520746869732066756e6374696f6e604482015290519081900360640190fd5b600184905560005b8351811015610b21576101006040519081016040528085838151811015156109e257fe5b9060200190602002015160ff1681526020018483815181101515610a0257fe5b9060200190602002015160ff1681526020018383815181101515610a2257fe5b60209081029190910181015160ff168252600082820181905260408084018290526060808501839052608080860184905260a09586018490528784526006855292829020865181559386015160018086019190915591860151600285015585015160039093018054928601519486015160c087015160e09097015161ffff1990941661ffff9586161763ffff0000191662010000968616969096029590951765ffff000000001916640100000000958516959095029490941767ffff00000000000019166601000000000000958416959095029490941769ffff00000000000000001916680100000000000000009290911691909102179055016109be565b50506004805460ff19166001179055505050565b60015481565b60056020819052600091825260409091209081015460069091015482565b600054600160a060020a03163314610bbb576040805160e560020a62461bcd02815260206004820181905260248201527f4f6e6c79206f776e65722063616e2075736520746869732066756e6374696f6e604482015290519081900360640190fd5b60005b8551811015610d42578581815181101515610bd557fe5b602090810291909101810151600083815260069092526040909120600301805461ffff191661ffff9092169190911790558451859082908110610c1457fe5b6020908102909101810151600083815260069092526040909120600301805461ffff909216620100000263ffff0000199092169190911790558351849082908110610c5b57fe5b6020908102909101810151600083815260069092526040909120600301805461ffff9092166401000000000265ffff00000000199092169190911790558251839082908110610ca657fe5b6020908102909101810151600083815260069092526040909120600301805461ffff90921666010000000000000267ffff000000000000199092169190911790558151829082908110610cf557fe5b6020908102909101810151600083815260069092526040909120600301805461ffff909216680100000000000000000269ffff000000000000000019909216919091179055600101610bbe565b50600080808080805b60035461ffff82161015610f1657600380546000955061ffff8316908110610d6f57fe5b6000918252602082200154600160a060020a031696505b60058160ff161015610e2957600160a060020a03871660009081526005602081905260409091209060ff8316908110610dbb57fe5b015460008181526006602081905260409091206003015461ffff8082166201000083048216600402016401000000008304821690930292909201600a660100000000000083048416020160056801000000000000000090920492909216020195909501949250600101610d86565b50600160a060020a0386166000908152600560208181526040808420808401548552600680845282862060039081015492820154808852948290529290952082015461ffff81811662010000808404831660049081029290920164010000000080860485168b029190910166010000000000008087048616600a90810292909201680100000000000000009788900487168c02018689169489048716909502939093019187048516909a020190850483169890980297909701919092048216909402939093010296909601919091019492508381169085161115610f0e578392508594505b600101610d4b565b5083600160a060020a03166108fc6002805460015402811515610f3557fe5b049081150290604051600060405180830381858888f19350505050158015610f61573d6000803e3d6000fd5b5060005460028054600154600160a060020a03909316926108fc929102049081150290604051600060405180830381858888f19350505050158015610faa573d6000803e3d6000fd5b5060006002819055610fbd600382611415565b50506004805460ff19169055505050505050505050565b600054600160a060020a03163314611036576040805160e560020a62461bcd02815260206004820181905260248201527f4f6e6c79206f776e65722063616e2075736520746869732066756e6374696f6e604482015290519081900360640190fd5b6004805460ff19169055565b60009081526006602052604090205490565b600054600160a060020a031681565b61106c336108d4565b156110c1576040805160e560020a62461bcd02815260206004820152601860248201527f74686520706c6179657220616c72656164792065786973740000000000000000604482015290519081900360640190fd5b8051600714611140576040805160e560020a62461bcd02815260206004820152602a60248201527f457861637420313120706c617965727320617265206e656564656420746f206660448201527f6f726d2061205465616d00000000000000000000000000000000000000000000606482015290519081900360840190fd5b80516000908190819081908190819081908190819081908b908290811061116357fe5b90602001906020020151905060008b600181518110151561118057fe5b6020908102909101015190508181141561120a576040805160e560020a62461bcd02815260206004820152602b60248201527f6361707461696e20616e6420766963655f6361707461696e2073686f756c642060448201527f6e6f742062652073616d65000000000000000000000000000000000000000000606482015290519081900360840190fd5b60025b60078110156113115760018d8281518110151561122657fe5b60209081029091018101519190910360008181526006909252604090912080546002909101549d019c90965060011415611261576001909601955b6000868152600660205260409020600101541515611284576001909a01996112ef565b600086815260066020526040902060019081015414156112a9576001909801976112ef565b600086815260066020526040902060010154600214156112ce576001909701966112ef565b600086815260066020526040902060010154600314156112ef576001909901985b828614156112fc57600194505b8186141561130957600193505b60010161120d565b5060005b60058110156113655760018d8260020181518110151561133157fe5b60209081029091018101513360009081526005928390526040902092900391908390811061135b57fe5b0155600101611315565b503360008181526005602081905260408220908101949094556006909301919091556003805460018181018355919093527fc2575a0e9e593c00f959f8c92f12db2869c3395a3b0502d05e2516446f71f85b909201805473ffffffffffffffffffffffffffffffffffffffff1916909117905560028054909101905550505050505050505050565b60038054829081106113fb57fe5b600091825260209091200154600160a060020a0316905081565b8154818355818111156114395760008381526020902061143991810190830161143e565b505050565b61084791905b808211156114585760008155600101611444565b509056fea165627a7a7230582046ba7f38c609510a6c54093d03002728e240b81ea37954c9a799d35648137d130029",
  "source": "pragma solidity ^0.5.0;\ncontract Cricket {\n  address payable public owner;\n  uint256 public Bet_value;\n  uint no_of_bet_so_far = 0;\n  address payable[] public players;\n  bool valid_bet = false;\n\n\n  struct Player {\n    uint[5]  Player_selected;\n    uint captain;\n    uint vice_captain;//should not be same as captain\n  }\n\n  struct SelectedPlayer {\n    uint credit; //max 100\n    uint wicketkeeper_batsman_allrounder_bowler;//1-4,3-6,1-4,3-6\n    uint team_AB; //1-2\n\n    uint16 run;\n    uint16 four;\n    uint16 six;\n    uint16 wicket;\n    uint16 maiden;\n  }\n\n  mapping(address => Player) public playerInfo;\n  mapping(uint=>SelectedPlayer) public SelectedPlayerInfos;\n\n\n  function() external payable {}\n  constructor() public {\n    owner = msg.sender;\n  }\n\n  function kill() public {\n      if(msg.sender == owner) selfdestruct(owner);\n  }\n\n  function init_bet(uint256 _Bet_value,uint8[] memory _credit,uint8[] memory _w_b_a_b,uint8[] memory _ab)public{\n    require(msg.sender == owner,\"Only owner can use this function\");//can add time also in require option then anyone can use this but only once #security\n    Bet_value = _Bet_value;\n    for(uint i = 0; i < _credit.length; i++){\n      SelectedPlayerInfos[i] = SelectedPlayer(_credit[i],_w_b_a_b[i],_ab[i],0,0,0,0,0);\n    }\n    valid_bet = true;\n  }\n\n  function dist_bet(uint16[] memory _run,uint16[] memory _four,uint16[] memory _six, uint16[] memory _wicket, uint16[] memory _maiden)public{\n    require(msg.sender == owner,\"Only owner can use this function\");//can add time also in require option then anyone can use this but only once #security\n    for(uint i = 0; i < _run.length; i++){\n      SelectedPlayerInfos[i].run = _run[i];\n      SelectedPlayerInfos[i].four = _four[i];\n      SelectedPlayerInfos[i].six = _six[i];\n      SelectedPlayerInfos[i].wicket = _wicket[i];\n      SelectedPlayerInfos[i].maiden = _maiden[i];\n    }\n    address payable playerAddress;\n    address payable max_playerAddress;\n    uint16 count = 0;\n    uint16 max_count = 0;\n    uint ith_player_info;\n    for(uint16 i = 0; i < players.length; i++){\n      count = 0;\n      playerAddress = players[i];\n      for(uint8 ij=0;ij<5;ij++){\n        ith_player_info =  playerInfo[playerAddress].Player_selected[ij];\n        count += SelectedPlayerInfos[ith_player_info].run + SelectedPlayerInfos[ith_player_info].four * 4 + SelectedPlayerInfos[ith_player_info].six * 6+ SelectedPlayerInfos[ith_player_info].wicket * 10 + SelectedPlayerInfos[ith_player_info].maiden * 5;\n      }\n      ith_player_info = playerInfo[playerAddress].captain;\n      count += 3 * ( SelectedPlayerInfos[ith_player_info].run + SelectedPlayerInfos[ith_player_info].four * 4 + SelectedPlayerInfos[ith_player_info].six * 6+ SelectedPlayerInfos[ith_player_info].wicket * 10 + SelectedPlayerInfos[ith_player_info].maiden * 5 );\n      ith_player_info = playerInfo[playerAddress].vice_captain;\n      count += 1 * ( SelectedPlayerInfos[ith_player_info].run + SelectedPlayerInfos[ith_player_info].four * 4 + SelectedPlayerInfos[ith_player_info].six * 6+ SelectedPlayerInfos[ith_player_info].wicket * 10 + SelectedPlayerInfos[ith_player_info].maiden * 5 );\n      if (count > max_count){\n        max_count = count;\n        max_playerAddress = playerAddress;\n      }\n    }\n    max_playerAddress.transfer((Bet_value * no_of_bet_so_far)/2 );\n    owner.transfer((Bet_value * no_of_bet_so_far)/2 );\n    no_of_bet_so_far = 0;\n    players.length = 0; \n    valid_bet = false;\n\n  }\n\n  function checkPlayerExists(address payable player) public view returns(bool){\n    for(uint256 i = 0; i < players.length; i++){\n      if(players[i] == player) return true;\n    }\n    return false;\n  }\n//main functions\n function betfunc(uint[] memory player_id) public payable {\n    // require(valid_bet,\"Betting time has ended\");\n    require(!checkPlayerExists(msg.sender),\"the player already exist\");\n    require (player_id.length == 7,\"Exact 11 players are needed to form a Team\");\n\n    uint temp_credit = 0;\n    uint temp_w = 0;\n    uint temp_bow = 0;\n    uint temp_bat = 0;\n    uint temp_all = 0;\n    uint temp_team_a = 0;\n    uint player_id_i;\n    bool check_captain = false;\n    bool check_vice_captain = false;\n    uint _captain = player_id[0];\n    uint _vc = player_id[1];\n    require (_captain != _vc,\"captain and vice_captain should not be same\");\n\n    for(uint i=2;i<7;i++){\n      player_id_i = player_id[i]-1;\n      temp_credit+=SelectedPlayerInfos[player_id_i].credit;\n      if(SelectedPlayerInfos[player_id_i].team_AB==1)temp_team_a++;\n\n      if(SelectedPlayerInfos[player_id_i].wicketkeeper_batsman_allrounder_bowler==0)temp_w++;\n      else if(SelectedPlayerInfos[player_id_i].wicketkeeper_batsman_allrounder_bowler==1)temp_bat++;\n      else if(SelectedPlayerInfos[player_id_i].wicketkeeper_batsman_allrounder_bowler==2)temp_all++;\n      else if(SelectedPlayerInfos[player_id_i].wicketkeeper_batsman_allrounder_bowler==3)temp_bow++;\n\n      if (player_id_i == _captain)check_captain= true;\n      if (player_id_i == _vc)check_vice_captain= true;\n    }\n    // require (check_captain ,\"Captain needed for a Team\");\n    // require (check_vice_captain ,\"Vice Captain needed for a Team\");\n\n    // require (temp_team_a >=1 && temp_team_a <=4 ,\"Need Player from both Teams\");\n    // require (temp_w >=1 && temp_w <=4 ,    \"Required no of players for wicketkeeper not matched\");\n    // require (temp_bow >=1 && temp_bow <=4 ,\"Required no of players for bowler not matched\");\n    // require (temp_bat >=1 && temp_bat <=4 ,\"Required no of players for batsman not matched\");\n    // require (temp_all >=1 && temp_all <=4 ,\"Required no of players for all-rounder not matched\");\n\n\n    for(uint i=0;i<5;i++){\n      playerInfo[msg.sender].Player_selected[i] = player_id[i+2]-1;\n    }\n    \n    playerInfo[msg.sender].captain = _captain;\n    playerInfo[msg.sender].vice_captain = _vc;\n    players.push(msg.sender);\n    no_of_bet_so_far++;\n  }\n  function stop_betting() public {\n    require(msg.sender == owner,\"Only owner can use this function\");//can add time also in require option then anyone can use this but only once #security\n    valid_bet = false;\n  }\n\n  function get_bet_value() public view returns(uint256){\n    return Bet_value;////show this in HTML\n  }\n\n  function w_b_a_b(uint _a) public view returns(uint256){\n    return SelectedPlayerInfos[_a].wicketkeeper_batsman_allrounder_bowler;////show this in HTML\n  }\n\n  function get_credit(uint _a) public view returns(uint256){\n    return SelectedPlayerInfos[_a].credit;////show this in HTML\n  }\n\n  function get_team(uint _a) public view returns(uint256){\n    return SelectedPlayerInfos[_a].team_AB;////show this in HTML\n  }\n}",
  "sourcePath": "/home/ankit/Desktop/yet_another_attempt/contracts/Cricket.sol",
  "compiler": {
    "name": "solc",
    "version": "0.5.0+commit.1d4f565a.Emscripten.clang"
  },
  "schemaVersion": "3.0.1",
  "updatedAt": "2019-10-16T06:45:18.414Z",
  "devdoc": {
    "methods": {}
  },
  "userdoc": {
    "methods": {}
  }
}