{
  "contractName": "Horse_Bet",
  "abi": [
    {
      "constant": true,
      "inputs": [
        {
          "name": "",
          "type": "address"
        }
      ],
      "name": "playerInfo",
      "outputs": [
        {
          "name": "amountBet",
          "type": "uint256"
        },
        {
          "name": "horseSelected",
          "type": "uint16"
        }
      ],
      "payable": false,
      "stateMutability": "view",
      "type": "function",
      "signature": "0x4b114691"
    },
    {
      "constant": true,
      "inputs": [],
      "name": "owner",
      "outputs": [
        {
          "name": "",
          "type": "address"
        }
      ],
      "payable": false,
      "stateMutability": "view",
      "type": "function",
      "signature": "0x8da5cb5b"
    },
    {
      "constant": true,
      "inputs": [],
      "name": "minimumBet",
      "outputs": [
        {
          "name": "",
          "type": "uint256"
        }
      ],
      "payable": false,
      "stateMutability": "view",
      "type": "function",
      "signature": "0xc38a8afd"
    },
    {
      "constant": true,
      "inputs": [
        {
          "name": "",
          "type": "uint256"
        }
      ],
      "name": "bet_ratios",
      "outputs": [
        {
          "name": "",
          "type": "uint256"
        }
      ],
      "payable": false,
      "stateMutability": "view",
      "type": "function",
      "signature": "0xcfaed5ba"
    },
    {
      "constant": true,
      "inputs": [
        {
          "name": "",
          "type": "uint256"
        }
      ],
      "name": "players",
      "outputs": [
        {
          "name": "",
          "type": "address"
        }
      ],
      "payable": false,
      "stateMutability": "view",
      "type": "function",
      "signature": "0xf71d96cb"
    },
    {
      "inputs": [],
      "payable": false,
      "stateMutability": "nonpayable",
      "type": "constructor",
      "signature": "constructor"
    },
    {
      "payable": true,
      "stateMutability": "payable",
      "type": "fallback"
    },
    {
      "constant": false,
      "inputs": [],
      "name": "kill",
      "outputs": [],
      "payable": false,
      "stateMutability": "nonpayable",
      "type": "function",
      "signature": "0x41c0e1b5"
    },
    {
      "constant": true,
      "inputs": [
        {
          "name": "player",
          "type": "address"
        }
      ],
      "name": "checkPlayerExists",
      "outputs": [
        {
          "name": "",
          "type": "bool"
        }
      ],
      "payable": false,
      "stateMutability": "view",
      "type": "function",
      "signature": "0x4081d916"
    },
    {
      "constant": false,
      "inputs": [
        {
          "name": "_teamSelected",
          "type": "uint8"
        }
      ],
      "name": "betfunc",
      "outputs": [],
      "payable": true,
      "stateMutability": "payable",
      "type": "function",
      "signature": "0xc6bfb554"
    },
    {
      "constant": false,
      "inputs": [
        {
          "name": "teamWinner",
          "type": "uint16"
        }
      ],
      "name": "distributePrizes",
      "outputs": [],
      "payable": false,
      "stateMutability": "nonpayable",
      "type": "function",
      "signature": "0x7904f688"
    },
    {
      "constant": true,
      "inputs": [
        {
          "name": "_address",
          "type": "address"
        },
        {
          "name": "_team",
          "type": "uint16"
        }
      ],
      "name": "Total_bet_by_Address",
      "outputs": [
        {
          "name": "",
          "type": "uint256"
        }
      ],
      "payable": false,
      "stateMutability": "view",
      "type": "function",
      "signature": "0x95842da4"
    },
    {
      "constant": false,
      "inputs": [
        {
          "name": "_bet_ratios",
          "type": "uint256[]"
        }
      ],
      "name": "set_bet_ratio",
      "outputs": [],
      "payable": false,
      "stateMutability": "nonpayable",
      "type": "function",
      "signature": "0x10e414da"
    },
    {
      "constant": false,
      "inputs": [],
      "name": "stop_betting",
      "outputs": [],
      "payable": false,
      "stateMutability": "nonpayable",
      "type": "function",
      "signature": "0x75f7cd62"
    },
    {
      "constant": true,
      "inputs": [
        {
          "name": "_id",
          "type": "uint256"
        }
      ],
      "name": "get_bet_ratio",
      "outputs": [
        {
          "name": "",
          "type": "uint256"
        }
      ],
      "payable": false,
      "stateMutability": "view",
      "type": "function",
      "signature": "0x4ab85e52"
    }
  ],
  "bytecode": "0x608060405260006002556003805460ff1916905534801561001f57600080fd5b5060008054600160a060020a03191633179055655af3107a4000600155610aa88061004b6000396000f3fe6080604052600436106100c45763ffffffff7c010000000000000000000000000000000000000000000000000000000060003504166310e414da81146100c65780634081d9161461017657806341c0e1b5146101bd5780634ab85e52146101d25780634b1146911461020e57806375f7cd621461025d5780637904f688146102725780638da5cb5b146102a057806395842da4146102d1578063c38a8afd1461030e578063c6bfb55414610323578063cfaed5ba14610343578063f71d96cb1461036d575b005b3480156100d257600080fd5b506100c4600480360360208110156100e957600080fd5b81019060208101813564010000000081111561010457600080fd5b82018360208201111561011657600080fd5b8035906020019184602083028401116401000000008311171561013857600080fd5b919080806020026020016040519081016040528093929190818152602001838360200280828437600092019190915250929550610397945050505050565b34801561018257600080fd5b506101a96004803603602081101561019957600080fd5b5035600160a060020a0316610450565b604080519115158252519081900360200190f35b3480156101c957600080fd5b506100c46104af565b3480156101de57600080fd5b506101fc600480360360208110156101f557600080fd5b50356104d2565b60408051918252519081900360200190f35b34801561021a57600080fd5b506102416004803603602081101561023157600080fd5b5035600160a060020a0316610506565b6040805192835261ffff90911660208301528051918290030190f35b34801561026957600080fd5b506100c4610523565b34801561027e57600080fd5b506100c46004803603602081101561029557600080fd5b503561ffff16610591565b3480156102ac57600080fd5b506102b5610766565b60408051600160a060020a039092168252519081900360200190f35b3480156102dd57600080fd5b506101fc600480360360408110156102f457600080fd5b508035600160a060020a0316906020013561ffff16610775565b34801561031a57600080fd5b506101fc6107bf565b6100c46004803603602081101561033957600080fd5b503560ff166107c5565b34801561034f57600080fd5b506101fc6004803603602081101561036657600080fd5b50356109eb565b34801561037957600080fd5b506102b56004803603602081101561039057600080fd5b5035610a0a565b600054600160a060020a031633146103f9576040805160e560020a62461bcd02815260206004820181905260248201527f4f6e6c79206f776e65722063616e2075736520746869732066756e6374696f6e604482015290519081900360640190fd5b60005b815181101561043f576005828281518110151561041557fe5b602090810290910181015182546001818101855560009485529290932090920191909155016103fc565b50506003805460ff19166001179055565b6000805b6004548110156104a45782600160a060020a031660048281548110151561047757fe5b600091825260209091200154600160a060020a0316141561049c5760019150506104aa565b600101610454565b50600090505b919050565b600054600160a060020a03163314156104d057600054600160a060020a0316ff5b565b60055460009082106104e6575060006104aa565b60058054839081106104f457fe5b90600052602060002001549050919050565b6006602052600090815260409020805460019091015461ffff1682565b600054600160a060020a03163314610585576040805160e560020a62461bcd02815260206004820181905260248201527f4f6e6c79206f776e65722063616e2075736520746869732066756e6374696f6e604482015290519081900360640190fd5b6003805460ff19169055565b600054600160a060020a031633146105f3576040805160e560020a62461bcd02815260206004820181905260248201527f4f6e6c79206f776e65722063616e2075736520746869732066756e6374696f6e604482015290519081900360640190fd5b60008060058361ffff1681548110151561060957fe5b60009182526020822001549150805b6004548110156106f857600480548290811061063057fe5b6000918252602080832090910154600160a060020a0316808352600690915260409091206001015490925061ffff90811690861614156106c957600160a060020a03821660008181526006602052604090205494506108fc6064858702049081150290604051600060405180830381858888f193505050501580156106b9573d6000803e3d6000fd5b5060028054606485870204900390555b600160a060020a03821660009081526006602052604081209081556001908101805461ffff1916905501610618565b506000610706600482610a32565b506000610714600582610a32565b5060008054600254604051600160a060020a039092169281156108fc029290818181858888f19350505050158015610750573d6000803e3d6000fd5b5050600060025550506003805460ff1916905550565b600054600160a060020a031681565b3360009081526006602052604081206001015461ffff838116911614156107b55750600160a060020a0382166000908152600660205260409020546107b9565b5060005b92915050565b60015481565b60035460ff161515610821576040805160e560020a62461bcd02815260206004820152601660248201527f42657474696e672074696d652068617320656e64656400000000000000000000604482015290519081900360640190fd5b6001543410156108a1576040805160e560020a62461bcd02815260206004820152603560248201527f42657474696e67206c657373207468616e20313030303030303030303030303060448201527f3020576569206973206e6f742061636365707465640000000000000000000000606482015290519081900360840190fd5b6108aa33610450565b1561096b573360009081526006602052604090206001015461ffff1660ff821614610945576040805160e560020a62461bcd02815260206004820152602360248201527f596f752063616e20626574206f6e206f6e6c79206f6e65205465616d2f506c6160448201527f7965720000000000000000000000000000000000000000000000000000000000606482015290519081900360840190fd5b3360009081526006602052604090208054349081019091556002805490910190556109e8565b336000818152600660205260408120348082556001918201805461ffff191660ff87161790556004805492830181559092527f8a35acfbc15ff81a39ae7d344fd709f28e8600b4aa8c65c6b64bfe7fe36bd19b01805473ffffffffffffffffffffffffffffffffffffffff19169092179091556002805490910190555b50565b60058054829081106109f957fe5b600091825260209091200154905081565b6004805482908110610a1857fe5b600091825260209091200154600160a060020a0316905081565b815481835581811115610a5657600083815260209020610a56918101908301610a5b565b505050565b610a7991905b80821115610a755760008155600101610a61565b5090565b9056fea165627a7a723058205a230ce43c1b8439c4c2381decbf3c3a21b06419f83926003a9c42311428c4750029",
  "source": "pragma solidity ^0.5.0;\ncontract Horse_Bet {\n  address payable public owner;\n  uint256 public minimumBet;\n  uint256 totalMoney = 0;\n  bool valid_bet = false;\n\n  address payable[] public players;\n  uint256[] public bet_ratios; //per 100\n\n  struct Player {\n    uint256 amountBet;\n    uint16 horseSelected;\n  }\n  mapping(address => Player) public playerInfo;\n  // mapping(uint=>uint) public bet_ratio; //per 100\n\n  function() external payable {}\n  constructor() public {\n    owner = msg.sender;\n    minimumBet = 100000000000000;\n  }\n  function kill() public {\n      if(msg.sender == owner) selfdestruct(owner);\n  }\n  function checkPlayerExists(address payable player) public view returns(bool){\n    for(uint256 i = 0; i < players.length; i++){\n      if(players[i] == player) return true;\n    }\n    return false;\n  }\n//main functions\n function betfunc(uint8 _teamSelected) public payable {\n    require(valid_bet,\"Betting time has ended\");\n    require(msg.value >= minimumBet,\"Betting less than 100000000000000 Wei is not accepted\");\n    // require(!checkPlayerExists(msg.sender),\"the player already exist\");\n    if(checkPlayerExists(msg.sender)){\n      require(playerInfo[msg.sender].horseSelected == _teamSelected,\"You can bet on only one Team/Player\");\n      playerInfo[msg.sender].amountBet += msg.value;\n      totalMoney+=msg.value;\n    }else{\n      playerInfo[msg.sender].amountBet = msg.value;\n      playerInfo[msg.sender].horseSelected = _teamSelected;\n      players.push(msg.sender);\n      totalMoney+=msg.value;\n    }\n  }\n\n  function distributePrizes(uint16 teamWinner) public {\n    require(msg.sender == owner,\"Only owner can use this function\");//can add time also in require option then anyone can use this but only once #security\n    uint256 bet;\n    uint256 ratio = bet_ratios[teamWinner];\n    address payable playerAddress;\n    for(uint256 i = 0; i < players.length; i++){\n      playerAddress = players[i];\n      if(playerInfo[playerAddress].horseSelected == teamWinner){\n        bet = playerInfo[playerAddress].amountBet;\n        playerAddress.transfer((bet*ratio)/100);\n        totalMoney-=(bet*ratio)/100;\n      }\n      delete playerInfo[playerAddress]; \n    }\n    players.length = 0; \n    bet_ratios.length = 0;\n    owner.transfer(totalMoney);\n    totalMoney = 0;\n    valid_bet = false;\n  }\n  function Total_bet_by_Address(address _address,uint16 _team) public view returns(uint256){\n    if(playerInfo[msg.sender].horseSelected == _team){\n      return playerInfo[_address].amountBet;  //default is 0\n    }\n    else {\n      return 0;\n    }\n  }\n  function set_bet_ratio( uint[] memory _bet_ratios) public {\n    require(msg.sender == owner,\"Only owner can use this function\");//can add time also in require option then anyone can use this but only once #security\n    for(uint i = 0; i < _bet_ratios.length; i++){\n      bet_ratios.push(_bet_ratios[i]);\n    }\n    valid_bet = true;\n  }\n\n  function stop_betting() public {\n    require(msg.sender == owner,\"Only owner can use this function\");//can add time also in require option then anyone can use this but only once #security\n    valid_bet = false;\n  }\n\n  function get_bet_ratio( uint _id) public view returns(uint){\n      if( _id >= bet_ratios.length)return 0;\n      return bet_ratios[_id];\n  }\n}",
  "sourcePath": "/home/ankit/Desktop/yet_another_attempt/contracts/Horse_Bet.sol",
  "compiler": {
    "name": "solc",
    "version": "0.5.0+commit.1d4f565a.Emscripten.clang"
  },
  "schemaVersion": "3.0.1",
  "updatedAt": "2019-10-16T06:45:18.421Z",
  "devdoc": {
    "methods": {}
  },
  "userdoc": {
    "methods": {}
  }
}